:020000040800F2
:1000000000800020D1040008990400089F04000823
:1000100000000000000000000000000000000000E0
:10002000000000000000000000000000A50400081F
:100030000000000000000000AF040008B904000840
:100040002105000800000000210500082105000826
:1000500021050008210500082105000821050008E8
:100060000000000021050008210500082105000806
:1000700021050008210500082105000800000000F6
:1000800021050008210500082105000821050008B8
:1000900021050008210500082105000821050008A8
:1000A0002105000821050008210500082105000898
:0C00B000210500082105000800000000E8
:1000BC0010B5064C2378002B07D1054B002B02D032
:1000CC00044800E000BF0123237010BD0C00002089
:1000DC0000000000CC1C0008044B10B5002B03D012
:1000EC000349044800E000BF10BDC04600000000FA
:1000FC0010000020CC1C0008002243088B4274D353
:10010C0003098B425FD3030A8B4244D3030B8B420C
:10011C0028D3030C8B420DD3FF22090212BA030C15
:10012C008B4202D31212090265D0030B8B4219D3F6
:10013C0000E0090AC30B8B4201D3CB03C01A524116
:10014C00830B8B4201D38B03C01A5241430B8B425E
:10015C0001D34B03C01A5241030B8B4201D30B0347
:10016C00C01A5241C30A8B4201D3CB02C01A52416E
:10017C00830A8B4201D38B02C01A5241430A8B4231
:10018C0001D34B02C01A5241030A8B4201D30B021A
:10019C00C01A5241CDD2C3098B4201D3CB01C01A34
:1001AC00524183098B4201D38B01C01A524143093E
:1001BC008B4201D34B01C01A524103098B4201D32C
:1001CC000B01C01A5241C3088B4201D3CB00C01A99
:1001DC00524183088B4201D38B00C01A5241430811
:1001EC008B4201D34B00C01A5241411A00D2014636
:1001FC00524110467047FFE701B5002000F006F8A9
:10020C0002BDC0460029F7D076E770477047C0465C
:10021C0080B500AF01F0C4FC00F005F800F08AF8DE
:10022C0000F058F8FEE790B595B000AF20243B19CC
:10023C00180030231A00002101F03AFD1023FB189E
:10024C00180010231A00002101F032FD3B001800A9
:10025C0010231A00002101F02BFD21007B18022233
:10026C001A607B180122DA607B1810221A617B1845
:10027C0000221A627B18180000F040FC031E01D00B
:10028C0000F08CF810217B1807221A607B180022D2
:10029C005A607B1800229A607B180022DA607B1867
:1002AC000021180000F048FF031E01D000F076F882
:1002BC003B0001221A603B0000229A603B001800B0
:1002CC0000F04EFB031E01D000F068F8C046BD469E
:1002DC0015B090BD80B500AF144B154A1A60134B86
:1002EC00E12252025A60114B00229A600F4B0022FD
:1002FC00DA600E4B00221A610C4B0C225A610B4B2C
:10030C0000229A61094B0022DA61084B00221A6222
:10031C00064B00225A62054B180001F053F8031EDD
:10032C0001D000F03BF8C046BD4680BD280000203F
:10033C000038014080B584B000AF174B5A69164B9A
:10034C00802109030A435A61134B5A6980231B030A
:10035C001340FB60FB68104B5A690F4B8021C9039B
:10036C000A435A610C4B5A698023DB031340BB6070
:10037C00BB68094B5A69084B802189020A435A61B0
:10038C00054B5A6980239B0213407B607B68C046F7
:10039C00BD4604B080BDC0460010024080B500AF21
:1003AC0072B6C046FEE7000080B582B000AF0F4BBE
:1003BC009A690E4B01210A439A610C4B9B690122ED
:1003CC0013407B607B68094BDA69084B8021490537
:1003DC000A43DA61054BDA6980235B0513403B6005
:1003EC003B68C046BD4602B080BDC046001002400E
:1003FC0090B58BB000AF786014243B19180014230F
:10040C001A00002101F054FC7B681B681D4A9342C2
:10041C0033D11D4B9A691C4B8021C9010A439A6147
:10042C00194B9A698023DB0113403B613B69164BE6
:10043C005A69154B802189020A435A61124B5A6939
:10044C0080239B021340FB60FB683B19C022D20047
:10045C001A6021007B1802225A607B1800229A60D5
:10046C007B180322DA607B1801221A617A18902318
:10047C00DB051100180000F003F9C046BD460BB0B7
:10048C0090BDC046003801400010024080B500AF5E
:10049C00FEE780B500AFFEE780B500AFC046BD46B5
:1004AC0080BD80B500AFC046BD4680BD80B500AFF5
:1004BC0001F0BEFBC046BD4680BD80B500AFC04656
:1004CC00BD4680BD0D488546FFF7F7FF0C480D492A
:1004DC000D4A002302E0D458C4500433C4188C4293
:1004EC00F9D30A4A0A4C002301E013600432A242F9
:1004FC00FBD301F0B9FBFFF78BFEFEE70080002079
:10050C00000000200C000020241D00080C0000201E
:10051C00B4000020FEE7000090B583B000AF0200ED
:10052C003960FB1D1A70FB1D1B787F2B28D82F4AB6
:10053C00FB1D1B785BB29B08C0339B009B58FA1DBC
:10054C001278110003220A40D200FF2191400A00C8
:10055C00D2431A4011003B689B01FF221A40FB1D3D
:10056C001B78180003230340DB009A401F48FB1D37
:10057C001B785BB29B080A43C0339B001A5031E0D6
:10058C001B4AFB1D1B7819000F230B40083B9B08D3
:10059C0006339B00D31804331B68FA1D1278110024
:1005AC0003220A40D200FF2191400A00D2431A4094
:1005BC0011003B689B01FF221A40FB1D1B781800A1
:1005CC0003230340DB009A400948FB1D1B781C00E9
:1005DC000F232340083B9B080A4306339B00C31898
:1005EC0004331A60C046BD4603B090BD00E100E084
:1005FC0000ED00E080B582B000AF78607B685A1ED9
:10060C0080235B049A4201D3012310E00A4B7A68E1
:10061C00013A5A6001235B4203211800FFF77CFF6B
:10062C00054B00229A60044B07221A600023180025
:10063C00BD4602B080BDC04610E000E080B584B07D
:10064C0000AFB9607A600F217B18021C1A70BA686F
:10065C007B181B785BB211001800FFF75DFFC046DA
:10066C00BD4604B080BD80B582B000AF78607B68B9
:10067C001800FFF7BFFF03001800BD4602B080BD95
:10068C0080B586B000AF7860396000237B614FE1A4
:10069C003B681B6801217A6991400A001340FB609A
:1006AC00FB68002B00D140E13B685B6803221340E0
:1006BC00012B05D03B685B6803221340022B30D121
:1006CC007B689B683B617B695B0003229A4013004B
:1006DC00DA433B6913403B613B68DA687B695B003A
:1006EC009A4013003A6913433B617B683A699A60FC
:1006FC007B685B683B6101227B699A401300DA439B
:10070C003B6913403B613B685B681B0901221A4043
:10071C007B699A4013003A6913433B617B683A69E1
:10072C005A603B685B6803221340032B17D07B682D
:10073C00DB683B617B695B0003229A401300DA4360
:10074C003B6913403B613B689A687B695B009A404C
:10075C0013003A6913433B617B683A69DA603B6882
:10076C005B6803221340022B23D17B69DA087B6878
:10077C0008329200D3583B617B69072213409B00DF
:10078C000F229A401300DA433B6913403B613B68EC
:10079C001A697B6907210B409B009A4013003A6948
:1007AC0013433B617B69DA087B6808329200396934
:1007BC00D1507B681B683B617B695B0003229A40CC
:1007CC001300DA433B6913403B613B685B680322CF
:1007DC001A407B695B009A4013003A6913433B61F2
:1007EC007B683A691A603B685A68C0239B021340C5
:1007FC0000D19AE0544B9A69534B01210A439A61F8
:10080C00514B9B6901221340BB60BB684F4A7B690B
:10081C009B0802339B009B583B617B69032213406E
:10082C009B000F229A401300DA433B6913403B6153
:10083C007A689023DB059A4213D07B68444A934232
:10084C000DD07B68434A934207D07B68424A93425F
:10085C0001D1032306E0052304E0022302E0012377
:10086C0000E000237A6903210A40920093403A6920
:10087C0013433B6135497B699B0802339B003A6902
:10088C005A50364B9B683B61FB68DA433B6913401B
:10089C003B613B685A6880235B03134003D03A6981
:1008AC00FB6813433B612D4B3A699A602B4BDB6819
:1008BC003B61FB68DA433B6913403B613B685A6818
:1008CC0080239B03134003D03A69FB6813433B61BD
:1008DC00224B3A69DA60214B5B683B61FB68DA4377
:1008EC003B6913403B613B685A6880239B02134071
:1008FC0003D03A69FB6813433B61184B3A695A6061
:10090C00164B1B683B61FB68DA433B6913403B6148
:10091C003B685A6880235B02134003D03A69FB683A
:10092C0013433B610D4B3A691A607B6901337B6160
:10093C003B681A687B69DA40131E00D0A8E6C046F3
:10094C00C046BD4606B080BD00100240000001400C
:10095C000004004800080048000C00480004014056
:10096C0080B586B000AF786000233B610023FB604C
:10097C007B681A6880235B02134000D18EE017203D
:10098C003B1800221A70574BDA6980235B05134021
:10099C0010D1544BDA69534B802149050A43DA6173
:1009AC00504BDA6980235B051340BB60BB683B1876
:1009BC0001221A704C4B1A6880235B0013401AD129
:1009CC00494B1A68484B802149000A431A6001F0D0
:1009DC0041F903003B6108E001F03CF902003B697E
:1009EC00D31A642B01D9032377E03F4B1A68802379
:1009FC005B001340F0D03B4B1A6AC0239B001340A2
:100A0C00FB60FB68002B34D07B685A68C0239B00CA
:100A1C001340FA689A422CD0324B1B6A334A13406B
:100A2C00FB60304B1A6A2F4B802149020A431A6231
:100A3C002C4B1A6A2B4B2E490A401A62294BFA6826
:100A4C001A62FB680122134013D001F003F9030072
:100A5C003B6109E001F0FEF802003B69D31A254A1C
:100A6C00934201D9032338E01E4B1B6A0222134028
:100A7C00F0D01C4B1B6A1D4A134019007B685A6846
:100A8C00184B0A431A621723FB181B78012B05D14C
:100A9C00144BDA69134B18490A40DA617B681B68FE
:100AAC000122134009D00F4B1B6B032293431900F7
:100ABC007B689A680B4B0A431A637B681B6820227D
:100ACC00134009D0074B1B6B1022934319007B6812
:100ADC00DA68044B0A431A6300231800BD4606B0BB
:100AEC0080BDC0460010024000700040FFFCFFFFBC
:100AFC00FFFFFEFF88130000FFFFFFEF80B588B0FB
:100B0C0000AF78607B68002B01D1012305E37B6883
:100B1C001B680122134000D18DE0C54B5B680C2291
:100B2C001340042B0ED0C24B5B680C221340082BD5
:100B3C0016D1BF4B5A68C0235B021A4080235B025C
:100B4C009A420DD1BA4B1A6880239B02134000D1F4
:100B5C0070E07B685B68002B00D06BE00123DCE26B
:100B6C007B685B68012B07D1B14B1A68B04B8021B5
:100B7C0049020A431A602FE07B685B68002B0CD19A
:100B8C00AB4B1A68AA4BAB490A401A60A84B1A68BF
:100B9C00A74BA9490A401A601EE07B685B68052BCD
:100BAC000ED1A34B1A68A24B8021C9020A431A60CA
:100BBC009F4B1A689E4B802149020A431A600BE036
:100BCC009B4B1A689A4B9B490A401A60984B1A68BF
:100BDC00974B99490A401A607B685B68002B14D0CC
:100BEC0001F038F80300BB6108E001F033F80200B3
:100BFC00BB69D31A642B01D903238EE28C4B1A6880
:100C0C0080239B021340F0D015E001F023F8030081
:100C1C00BB6108E001F01EF80200BB69D31A642B1B
:100C2C0001D9032379E2824B1A6880239B0213407B
:100C3C00F0D100E0C0467B681B680222134000D153
:100C4C006CE07B4B5B680C2213400ED0784B5B68DE
:100C5C000C221340082B1FD1754B5A68C0235B0222
:100C6C001A4080231B029A4216D1714B1B68022238
:100C7C00134005D07B68DB68012B01D001234CE2CB
:100C8C006B4B1B68F822934319007B681B69DA00D5
:100C9C00674B0A431A6041E07B68DB68002B24D069
:100CAC00634B1A68624B01210A431A6000F0D2FFB1
:100CBC000300BB6108E000F0CDFF0200BB69D31A52
:100CCC00022B01D9032328E2594B1B680222134043
:100CDC00F1D0574B1B68F822934319007B681B69B2
:100CEC00DA00534B0A431A6018E0514B1A68504B08
:100CFC0001218A431A6000F0ADFF0300BB6108E0DC
:100D0C0000F0A8FF0200BB69D31A022B01D9032300
:100D1C0003E2474B1B6802221340F1D17B681B682E
:100D2C000822134036D07B68DB69002B19D0404B6E
:100D3C005A6A3F4B01210A435A6200F08BFF0300B1
:100D4C00BB6108E000F086FF0200BB69D31A022BDE
:100D5C0001D90323E1E1364B5B6A02221340F1D047
:100D6C0018E0334B5A6A324B01218A435A6200F025
:100D7C0071FF0300BB6108E000F06CFF0200BB696F
:100D8C00D31A022B01D90323C7E1294B5B6A022238
:100D9C001340F1D17B681B680422134000D1B5E0ED
:100DAC001F203B1800221A70214BDA6980235B0547
:100DBC00134010D11E4BDA691D4B802149050A43A3
:100DCC00DA611B4BDA6980235B051340FB60FB681F
:100DDC003B1801221A70194B1A6880235B001340D0
:100DEC001AD1164B1A68154B802149000A431A6018
:100DFC0000F030FF0300BB6108E000F02BFF0200A5
:100E0C00BB69D31A642B01D9032386E10B4B1A68F7
:100E1C0080235B001340F0D07B689B68012B0FD1C3
:100E2C00034B1A6A024B01210A431A6236E0C04690
:100E3C0000100240FFFFFEFFFFFFFBFF00700040B1
:100E4C007B689B68002B0CD1B64B1A6AB54B012101
:100E5C008A431A62B34B1A6AB24B04218A431A6250
:100E6C001CE07B689B68052B0CD1AE4B1A6AAD4B12
:100E7C0004210A431A62AB4B1A6AAA4B01210A439A
:100E8C001A620BE0A74B1A6AA64B01218A431A621D
:100E9C00A44B1A6AA34B04218A431A627B689B6891
:100EAC00002B14D000F0D6FE0300BB6109E000F06B
:100EBC00D1FE0200BB69D31A9B4A934201D903238A
:100ECC002BE1984B1B6A02221340F0D013E000F088
:100EDC00C1FE0300BB6109E000F0BCFE0200BB696F
:100EEC00D31A914A934201D9032316E18D4B1B6A05
:100EFC0002221340F0D11F23FB181B78012B05D1C4
:100F0C00884BDA69874B89490A40DA617B681B6830
:100F1C001022134063D07B685B69012B2AD1814B73
:100F2C005A6B804B04210A435A637E4B5A6B7D4BA0
:100F3C0001210A435A6300F08DFE0300BB6108E0F7
:100F4C0000F088FE0200BB69D31A022B01D90323DF
:100F5C00E3E0744B5B6B02221340F1D0714B5B6B83
:100F6C00F822934319007B689B69DA006D4B0A43A6
:100F7C005A6334E07B685B69053311D1694B5A6B5A
:100F8C00684B04218A435A63664B5B6BF82293438C
:100F9C0019007B689B69DA00624B0A435A631EE0B6
:100FAC00604B5A6B5F4B04210A435A635D4B5A6B7F
:100FBC005C4B01218A435A6300F04CFE0300BB6179
:100FCC0008E000F047FE0200BB69D31A022B01D9DE
:100FDC000323A2E0534B5B6B02221340F1D17B68DD
:100FEC001B6A002B00D197E04E4B5B680C22134020
:100FFC00082B00D16BE07B681B6A022B4CD1494B50
:10100C001A68484B4A490A401A6000F023FE030054
:10101C00BB6108E000F01EFE0200BB69D31A022B74
:10102C0001D9032379E03F4B1A6880239B041340BA
:10103C00F0D13C4BDB6A0F22934319007B68DA6AD0
:10104C00384B0A43DA62374B5B683A4A1340190053
:10105C007B689A6A7B685B6A1A43324B0A435A6014
:10106C00304B1A682F4B802149040A431A6000F058
:10107C00F1FD0300BB6108E000F0ECFD0200BB6970
:10108C00D31A022B01D9032347E0264B1A6880237D
:10109C009B041340F0D03FE0224B1A68214B2449AB
:1010AC000A401A6000F0D6FD0300BB6108E000F0B6
:1010BC00D1FD0200BB69D31A022B01D903232CE00A
:1010CC00184B1A6880239B041340F0D124E07B68F2
:1010DC001B6A012B01D101231FE0124B5B687B6162
:1010EC00104BDB6A3B617A69C0235B021A407B6858
:1010FC005B6A9A420ED13B690F221A407B68DB6A0D
:10110C009A4207D17A69F0239B031A407B689B6A49
:10111C009A4201D0012300E000231800BD4608B01C
:10112C0080BDC0460010024088130000FFFFFFEF97
:10113C00FFFFFFFEFF7FC2FF80B584B000AF786079
:10114C0039607B68002B01D10123B3E05B4B1B683A
:10115C00012213403A689A4211D9584B1B6801225C
:10116C0093431900554B3A680A431A60534B1B685A
:10117C00012213403A689A4201D001239AE07B681D
:10118C001B680222134015D07B681B680422134095
:10119C0006D04B4B5A684A4BE021C9000A435A60AF
:1011AC00474B5B68F022934319007B689A68444B69
:1011BC000A435A607B681B680122134040D07B684D
:1011CC005B68012B07D13E4B1A6880239B021340AE
:1011DC0014D101236EE07B685B68022B07D1384B7E
:1011EC001A6880239B04134008D1012362E0344B1E
:1011FC001B680222134001D101235BE0304B5B687A
:10120C000322934319007B685A682D4B0A435A609A
:10121C0000F020FD0300FB6009E000F01BFD020064
:10122C00FB68D31A274A934201D9032342E0244B8B
:10123C005B680C221A407B685B689B009A42ECD17D
:10124C001E4B1B68012213403A689A4211D21B4B69
:10125C001B68012293431900184B3A680A431A6021
:10126C00164B1B68012213403A689A4201D00123A5
:10127C0020E07B681B680422134009D0104B5B688C
:10128C00114A134019007B68DA680D4B0A435A6007
:10129C0000F020F801000A4B5B681B090F22134079
:1012AC000A4AD35C0A00DA40094B1A60032000F0AA
:1012BC008BFC00231800BD4604B080BD002002400A
:1012CC000010024088130000FFF8FFFFE41C000828
:1012DC000000002080B586B000AF0023FB60002327
:1012EC00BB6000237B6100237B6000233B61214BAF
:1012FC005B68FB60FB680C221340042B02D0082BAC
:10130C0003D02EE01C4B3B612EE0FB689B0C0F22A4
:10131C0013401A4AD35C7B60164BDB6A0F221340D6
:10132C00174AD35CBB60FA68C0235B021A40802367
:10133C005B029A4209D1B9680F48FEF7DDFE030043
:10134C001A007B6853437B6108E0B9680A48FEF7D2
:10135C00D3FE03001A007B6853437B617B693B61BE
:10136C0002E0054B3B61C0463B691800BD4606B028
:10137C0080BDC0460010024000127A00FC1C000820
:10138C000C1D000880B500AF024B1B681800BD4651
:10139C0080BDC0460000002080B500AFFFF7F2FF13
:1013AC000100064B5B681B0A07221340044AD35CFE
:1013BC00D9400B001800BD4680BDC046001002404D
:1013CC00F41C000880B582B000AF78607B68002BFD
:1013DC0001D1012344E07B68DB6F002B07D17B68D4
:1013EC007822002199547B681800FFF701F87B687C
:1013FC002422DA677B681B681A687B681B680121EA
:10140C008A431A607B68180000F030F80300012B47
:10141C0001D1012324E07B685B6A002B03D07B683D
:10142C00180000F093F97B681B685A687B681B688E
:10143C000D490A405A607B681B689A687B681B6878
:10144C0008218A439A607B681B681A687B681B6852
:10145C0001210A431A607B68180000F02BFA030084
:10146C001800BD4602B080BDFFF7FFFF80B588B005
:10147C0000AF78601E23FB1800221A707B689A68F4
:10148C007B681B691A437B685B691A437B68DB6961
:10149C0013437B617B681B681B68A14A13401900CE
:1014AC007B681B687A690A431A607B681B685B68F7
:1014BC009C4A134019007B68DA687B681B680A43F6
:1014CC005A607B689B697B617B681B6A7A691343F2
:1014DC007B617B681B689B68934A134019007B688F
:1014EC001B687A690A439A607B681B688F4A93422F
:1014FC0027D18F4B1B6B03221340032B0DD01BD812
:10150C00022B14D018D8002B02D0012B0AD013E0D8
:10151C001F23FB1800221A7049E01F23FB1802221C
:10152C001A7044E01F23FB1804221A703FE01F239B
:10153C00FB1808221A703AE01F23FB1810221A70AD
:10154C0035E07B681B687B4A934204D11F23FB1850
:10155C0000221A702BE07B681B68774A934204D1F7
:10156C001F23FB1800221A7021E07B681B68734A4A
:10157C00934204D11F23FB1800221A7017E07B68DA
:10158C001B686F4A934204D11F23FB1800221A7068
:10159C000DE07B681B686B4A934204D11F23FB1838
:1015AC0000221A7003E01F23FB1810221A707B68AC
:1015BC00DA6980231B029A425CD11F23FB181B782B
:1015CC00082B15D018DC042B0DD015DC002B02D009
:1015DC00022B05D010E0FFF7DFFE0300BB6112E029
:1015EC00594BBB610FE0FFF775FE0300BB610AE0CE
:1015FC0080231B02BB6106E00023BB611E23FB188A
:10160C0001221A70C046BB69002B00D17AE0BB697D
:10161C005A007B685B685B08D2187B685B681900B2
:10162C001000FEF769FD03003B613B690F2B1CD9D1
:10163C003A6980235B029A4217D23B699AB20E2018
:10164C003B180F218A431A803B695B089BB2072227
:10165C00134099B23B183A1812880A431A807B68D7
:10166C001B683A181288DA604CE01E23FB18012222
:10167C001A7047E01F23FB181B78082B15D018DCB9
:10168C00042B0DD015DC002B02D0022B05D010E062
:10169C00FFF782FE0300BB6112E02B4BBB610FE036
:1016AC00FFF718FE0300BB610AE080231B02BB613D
:1016BC0006E00023BB611E23FB1801221A70C046F2
:1016CC00BB69002B1ED07B685B685A08BB69D218BB
:1016DC007B685B6819001000FEF70EFD03003B6190
:1016EC003B690F2B0AD93A6980235B029A4205D2D7
:1016FC003B699AB27B681B68DA6003E01E23FB1817
:10170C0001221A707B6800229A667B680022DA66D6
:10171C001E23FB181B781800BD4608B080BDC046C0
:10172C00F369FFEFFFCFFFFFFFF4FFFF003801402D
:10173C00001002400044004000480040004C0040B3
:10174C00005000400014014000127A0080B582B0B5
:10175C0000AF78607B685B6A012213400BD07B681A
:10176C001B685B684A4A134019007B689A6A7B685D
:10177C001B680A435A607B685B6A022213400BD0D9
:10178C007B681B685B68434A134019007B68DA6A04
:10179C007B681B680A435A607B685B6A04221340AF
:1017AC000BD07B681B685B683B4A134019007B6855
:1017BC001A6B7B681B680A435A607B685B6A082259
:1017CC0013400BD07B681B685B68344A13401900CC
:1017DC007B685A6B7B681B680A435A607B685B6A40
:1017EC00102213400BD07B681B689B682C4A13405B
:1017FC0019007B689A6B7B681B680A439A607B684C
:10180C005B6A202213400BD07B681B689B68254ABF
:10181C00134019007B68DA6B7B681B680A439A607B
:10182C007B685B6A402213401DD07B681B685B6839
:10183C001D4A134019007B681A6C7B681B680A43AD
:10184C005A607B681A6C80235B039A420BD17B68CD
:10185C001B685B68154A134019007B685A6C7B68DF
:10186C001B680A435A607B685B6A802213400BD06A
:10187C007B681B685B680E4A134019007B689A6C86
:10188C007B681B680A435A60C046BD4602B080BDE7
:10189C00FFFFFDFFFFFFFEFFFFFFFBFFFF7FFFFFD3
:1018AC00FFEFFFFFFFDFFFFFFFFFEFFFFFFF9FFFDC
:1018BC00FFFFF7FF80B592B002AF78607B6884229F
:1018CC000021995000F0C6F90300FB637B681B688C
:1018DC001B6808221340082B2CD1FB6B8022910330
:1018EC007868464A0092002200F08CF8031E21D042
:1018FC00EFF310837B627B6ABB630123BB62BB6A21
:10190C0083F31088C0467B681B681A687B681B6869
:10191C0080218A431A60BB6BFB62FB6A83F31088DD
:10192C00C0467B682022DA677B68782200219954B4
:10193C0003235FE07B681B681B6804221340042BA5
:10194C0046D1FB6B8022D10378682C4A009200228E
:10195C0000F058F8031E3BD0EFF31083FB60FB68DC
:10196C007B6301233B613B6983F31088C0467B6832
:10197C001B681A687B681B6821490A401A607B6BDC
:10198C007B617B6983F31088C046EFF31083BB61E6
:10199C00BB693B630123FB61FB6983F31088C04681
:1019AC007B681B689A687B681B6801218A439A6074
:1019BC003B6B3B623B6A83F31088C0467B6880229A
:1019CC00202199507B68782200219954032311E03F
:1019DC007B682022DA677B688022202199507B6803
:1019EC0000221A667B6800225A667B6878220021E6
:1019FC00995400231800BD4610B080BDFFFFFF01B5
:101A0C00DFFEFFFF80B584B000AFF860B9603B60CB
:101A1C00FB1D1A704BE0BB69013348D000F01AF97A
:101A2C0002003B68D31ABA699A4202D3BB69002BF5
:101A3C0001D103234BE0FB681B681B680422134095
:101A4C0035D0FB681B68DB6908221340082B11D1C9
:101A5C00FB681B6808221A62FB68180000F03CF84F
:101A6C00FB68842208219950FB6878220021995444
:101A7C0001232CE0FB681B68DA6980231B011A40E8
:101A8C0080231B019A4212D1FB681B688022120131
:101A9C001A62FB68180000F01FF8FB6884222021F2
:101AAC009950FB6878220021995403230FE0FB68BE
:101ABC001B68DB69BA681340BA68D31A5A4253419F
:101ACC00DBB21A00FB1D1B789A42A4D0002318002D
:101ADC00BD4604B080BD000080B58EB000AF78600C
:101AEC00EFF310837B617B697B630123BB61BB6973
:101AFC0083F31088C0467B681B681A687B681B6878
:101B0C0026490A401A607B6BFB61FB6983F31088E2
:101B1C00C046EFF310833B623B6A3B6301237B625D
:101B2C007B6A83F31088C0467B681B689A687B6865
:101B3C001B6801218A439A603B6BBB62BB6A83F3CF
:101B4C001088C0467B681B6E012B18D1EFF31083F5
:101B5C00BB60BB68FB620123FB60FB6883F31088EE
:101B6C00C0467B681B681A687B681B6810218A4317
:101B7C001A60FB6A3B613B6983F31088C0467B6843
:101B8C008022202199507B6800221A667B680022F3
:101B9C009A66C046BD460EB080BDC046DFFEFFFF54
:101BAC0080B500AF074B1A68064B10210A431A6028
:101BBC00032000F009F8FEF7F7FB00231800BD46E0
:101BCC0080BDC0460020024090B583B000AF786065
:101BDC00144B1C68144B1B781900FA239800FEF761
:101BEC008BFA030019002000FEF786FA0300180098
:101BFC00FEF739FD031E01D001230FE07B68032B98
:101C0C000BD8796801235B4200221800FEF716FD01
:101C1C00064B7A681A60002300E001231800BD46C9
:101C2C0003B090BD0000002008000020040000203C
:101C3C0080B500AF054B1B781A00054B1B68D218FA
:101C4C00034B1A60C046BD4680BDC046080000204C
:101C5C00B000002080B500AF024B1B681800BD46D9
:101C6C0080BDC046B000002070B500260C4D0D4C58
:101C7C00641BA410A64209D1002600F021F80A4DDD
:101C8C000A4C641BA410A64205D170BDB300EB58DE
:101C9C0098470136EEE7B300EB5898470136F2E768
:101CAC001C1D00081C1D00081C1D0008201D000820
:101CBC0003008218934200D1704719700133F9E781
:101CCC00F8B5C046F8BC08BC9E467047F8B5C0468F
:081CDC00F8BC08BC9E467047ED
:101CE40000000000000000000102030406070809C8
:101CF40000000000010203040203040506070809AA
:101D04000A0B0C0D0E0F1010010203040506070840
:081D1400090A0B0C0D0E0F1063
:041D1C00E5000008D6
:041D2000BD000008FA
:0C1D240000127A00040000000100000022
:04000005080004D11A
:00000001FF
